:020000040800F2
:10000000780600208901000891010008930100088A
:100010009501000897010008990100080000000000
:100020000000000000000000000000009B0100082C
:100030009D010008000000009F010008A1010008C8
:10004000A3010008A3010008A3010008A301000800
:10005000A3010008A3010008A3010008A3010008F0
:10006000A3010008A3010008A3010008A3010008E0
:10007000A3010008A3010008A3010008A3010008D0
:10008000A3010008A3010008A3010008A3010008C0
:10009000A3010008A3010008A3010008A3010008B0
:1000A000A3010008A3010008A3010008A3010008A0
:1000B000A3010008A3010008A3010008A301000890
:1000C000A3010008A3010008A3010008A301000880
:1000D000A3010008A3010008A3010008A301000870
:1000E000A3010008A3010008A301000800F002F822
:1000F00000F03AF80AA090E8000C82448344AAF188
:100100000107DA4501D100F02FF8AFF2090EBAE885
:100110000F0013F0010F18BFFB1A43F0010318473B
:100120007405000094050000103A24BF78C878C117
:10013000FAD8520724BF30C830C144BF04680C60ED
:10014000704700000023002400250026103A28BF35
:1001500078C1FBD8520728BF30C148BF0B60704739
:100160001FB51FBD10B510BD00F031F81146FFF7E7
:10017000F7FF00F0A7F900F04FF803B4FFF7F2FF24
:1001800003BC00F057F800000948804709480047C1
:10019000FEE7FEE7FEE7FEE7FEE7FEE7FEE7FEE737
:1001A000FEE7FEE704480549054A064B7047000094
:1001B00085030008ED000008780000207806002084
:1001C000780200207802002070477047704775461B
:1001D00000F02CF8AE4605006946534620F00700B3
:1001E000854618B020B5FFF7DDFFBDE820404FF091
:1001F00000064FF000074FF000084FF0000BAC4630
:10020000ACE8C009ACE8C009ACE8C009ACE8C0097A
:1002100021F007018D46704710B50446AFF300800A
:100220002046BDE81040FFF7A8BF00000048704717
:100230001000002001491820ABBEFEE72600020096
:100240007047000082B00190ADF80210BDF80200C6
:100250000199086102B0704780B500F001F880BDD7
:1002600084B000200390029041F20001C4F2020128
:10027000086840F480300860FFE741F20000C4F2F3
:100280000200006800F400300290039801300390EF
:10029000FFE702990020019039B9FFE70398B0F514
:1002A000A06018BF01200190FFE70198C007002857
:1002B000E3D1FFE741F20000C4F2020000688003CE
:1002C000002803D5FFE70120029002E00020029001
:1002D000FFE70298012851D1FFE742F20001C4F282
:1002E0000201086840F010000860086820F007006C
:1002F0000860086840F00200086041F20401C4F29E
:10030000020100910868086008680860086840F405
:1003100080600860086820F47C100860086840F479
:10032000E810086041F20001C4F20201086840F0E0
:1003300080700860FFE741F20000C4F2020000682C
:100340008001002801D4FFE7F5E741F20401C4F27F
:100350000201086820F003000860086840F002000D
:100360000860FFE741F20400C4F20200006800F0F8
:100370000C00082801D0FFE7F4E700E0FFE704B035
:100380007047000080B541F20002C4F2020210681A
:1003900040F00100106041F20401C4F2020108685B
:1003A0000023CFF6FF031840086010684FF6FF7374
:1003B000CFF6F66318401060106820F480201060BB
:1003C000086820F4FE00086041F20801C4F202014E
:1003D0004FF41F000860FFF73FFF4EF60851CEF2C2
:1003E00000014FF00060086080BD000081B0009007
:1003F000FFE70098411E009108B1FFE7F9E701B05F
:100400007047000041F21801C4F20201086840F090
:100410000400086040F60001C4F20101086820F001
:100420000F000860086840F00800086040F60C0102
:10043000C4F20101086840F0010008607047000044
:1004400041F21801C4F20201086840F0100008608F
:1004500041F20402C4F20102106820F4700010603E
:10046000106840F440101060106820F440001060E4
:1004700041F20C02C4F20102106820F40050106036
:10048000086840F00800086040F60041C4F201012D
:100490004FF03330086040F60441C4F201010868AF
:1004A0004FF6FF7290430860086843F233321043FE
:1004B000086040F60C41C4F20101086840F47F4036
:1004C0000860704780B582B000200190FFF7B8FF48
:1004D000FFF798FFFFE740F60800C4F2010000684C
:1004E000C007D0B9FFE7FFE740F60800C4F20100FB
:1004F0000068C00708B9FFE7F6E740F27001C2F2F2
:10050000000108680130086041F20000C4F20100F7
:100510004FF40051FFF796FEFFE740F27000C2F281
:100520000000008800F002F8D5E7000080B586B032
:10053000ADF81600BDF816004CF6CD41CCF6CC4116
:100540000091A0FB0121C90801EB8101A0EB410052
:10055000049040F60C41C4F201010391086820F4B4
:1005600000600860086820F0FF000860049A40F20C
:100570000000C2F200000190825C0868104308602D
:1005800064200290FFF732FFDDF800C00199029865
:10059000039A136843F400631360BDF81630A3FB9D
:1005A0000CE3DB08ADF81630BDF81630A3FB0CECFD
:1005B0004FEADC0C0CEB8C0CA3EB4C03049313689C
:1005C00023F480631360136823F0FF031360049B1C
:1005D000CB5C116819431160FFF708FFDDF800C01C
:1005E00001990298039A136843F480631360BDF87D
:1005F0001630A3FB0CE3DB08ADF81630BDF816305F
:10060000A3FB0CEC4FEADC0C0CEB8C0CA3EB4C03C7
:100610000493136823F400731360136823F0FF033B
:100620001360049BCB5C116819431160FFF7DEFE79
:10063000DDF800C001990298039A136843F400732F
:100640001360BDF81630A3FB0CE3DB08ADF81630E1
:10065000BDF81630A3FB0CEC4FEADC0C0CEB8C0C59
:10066000A3EB4C030493136823F4807313601368A3
:1006700023F0FF031360049BCB5C116819431160E6
:10068000FFF7B4FE0399086840F48070086006B074
:1006900080BD0000B8060008000000201000000027
:1006A00028010008C80600081000002068060000A5
:1006B00044010008000000003F065B4F666D7D07A7
:0806C0007F6F00000000000044
:04000005080000ED02
:00000001FF
