:020000040800F2
:100000000807002089010008CD100008C51000086D
:10001000C910000845020008E110000800000000B7
:10002000000000000000000000000000D5100008E3
:100030004902000800000000D1100008D910000893
:10004000A3010008A3010008A3010008A301000800
:10005000A3010008A3010008A3010008A3010008F0
:10006000A3010008A3010008A3010008A3010008E0
:10007000A3010008A3010008A3010008A3010008D0
:10008000A3010008A3010008A3010008A3010008C0
:10009000A3010008A3010008A3010008A3010008B0
:1000A000A3010008A3010008A3010008A3010008A0
:1000B000A3010008A3010008A3010008A301000890
:1000C000A3010008A3010008A3010008A301000880
:1000D000A3010008A3010008A3010008A301000870
:1000E000A3010008A3010008A301000800F002F822
:1000F00000F03AF80AA090E8000C82448344AAF188
:100100000107DA4501D100F02FF8AFF2090EBAE885
:100110000F0013F0010F18BFFB1A43F0010318473B
:100120004811000068110000103A24BF78C878C157
:10013000FAD8520724BF30C830C144BF04680C60ED
:10014000704700000023002400250026103A28BF35
:1001500078C1FBD8520728BF30C148BF0B60704739
:100160001FB51FBD10B510BD00F031F81146FFF7E7
:10017000F7FF00F0B7FF00F04FF803B4FFF7F2FF0E
:1001800003BC00F057F800000948804709480047C1
:10019000FEE7FEE7FEE7FEE7FEE7FEE7FEE7FEE737
:1001A000FEE7FEE704480549054A064B7047000094
:1001B000DD100008ED0000080801002008070020FD
:1001C00008030020080300207047704770477546F9
:1001D00000F02CF8AE4605006946534620F00700B3
:1001E000854618B020B5FFF7DDFFBDE820404FF091
:1001F00000064FF000074FF000084FF0000BAC4630
:10020000ACE8C009ACE8C009ACE8C009ACE8C0097A
:1002100021F007018D46704710B50446AFF300800A
:100220002046BDE81040FFF7A8BF00000048704717
:100230001800002001491820ABBEFEE7260002008E
:1002400070470000FEE700007047000010B590F80E
:1002500020E0D0F800C0AEF1010EBEF1010FDCF8D5
:1002600008E011D81EF0E05F18D0CEF3016E012037
:1002700000FA0EF018608B68D3B14868CC6844EA85
:10028000C000034318E000BF00F1240101204FF437
:1002900080220B681A430A6010BD00BF00F12401E0
:1002A00001204FF400120B681A430A6010BD00BF12
:1002B0000868CB6843EA40530CEB0E10C0F880315D
:1002C0000B69C0F88431097D012905D100F5C2719F
:1002D0000B6843F480730B605168C0F88C1112688E
:1002E00000F5C071C0F88821002001220B681A4374
:1002F0000A6010BDB0B5C8B1044690F8200010B92E
:10030000204600F071F82068016841F001010160A9
:1003100000F0CAF9054600BF20684168C90707D147
:1003200000F0C2F9401B0B28F6D312E00120B0BD4B
:10033000016821F00201016000F0B6F9054600BF36
:100340002068416889070DD500F0AEF9401B0B28E5
:10035000F6D3606A052140F400306062012084F821
:100360002010B0BD217E0268012922F0800208BF62
:1003700080320260617E0268012922F0400208BFDB
:1003800040320260A17E0268012922F0200208BFEB
:1003900020320260E17E0268012922F0100218BFBB
:1003A00010320260217F0268012922F0080208BF92
:1003B00008320260617F0268012922F0040208BF4E
:1003C00004320260D4E901C2D4E9033561691A43F9
:1003D0002A431143ACF101021143C1610020012104
:1003E000606284F82010B0BDB0B586B040F600045D
:1003F000C4F201040068A4F5244200219042059152
:1004000002D006B0B0BD00BF41F21800C4F2020035
:10041000426802AD42F000724260426802F000722F
:100420000192019A026842F004020260006800F042
:100430000400019001984FF40060CDE9020104919D
:100440002046294600F022F84FF480500290022006
:100450000390032005902046294600F017F806B0C7
:10046000B0BD0000B0B5044600F01EF9054640F2EC
:100470000000C2F200000078611C18BF044400BFF5
:1004800000F012F9401BA042FAD3B0BD2DE9F04FA5
:1004900082B00E68002E00F0038141F20042C4F2E7
:1004A0000102042340F2004E904208BF03234FF69E
:1004B000FF7CC4F2010E009300240123C1F2100C52
:1004C0004FF0000A4FF0000949E000BF012704F097
:1004D0000C030F229A402BEA020207FA03F34FEAB9
:1004E0009A051A4346F82520D1F804B040F20C458D
:1004F0005FEACB22DEF8082054BF22EA080242EA73
:100500000802C4F20105CEF808202A685FEA8B23AE
:1005100054BF22EA080242EA08022A605FEA8B33EB
:10052000DEF8042054BF22EA080242EA08025FEA29
:10053000CB33CEF80420DEF800204FF0010354BF87
:1005400022EA080242EA0802CEF800200E680AF108
:10055000010A36FA0AF204F1040400F0A18003FA59
:100560000AF816EA080FF1D04E68664512DC122E22
:1005700056D8DFE806F0350B4549555555555555C4
:10058000555555555555554D510000BFD1F80C9056
:1005900046E000BF4FF6FF72C1F2210296420FDC27
:1005A0000022C1F2110296421AD00022C1F21202B8
:1005B000964215D00022C1F22102964210D02FE0BF
:1005C0000022C1F2220296420AD00022C1F2310278
:1005D000964205D00022C1F23202964220D100BFDD
:1005E0008A684AB1012A14BFC0F81480C0F810808C
:1005F0004FF0080914E000BF4FF0040910E000BFFD
:10060000CA6802F108090BE04FF0000908E000BFDA
:10061000CA6802F1040903E0CA6802F10C0900BFCC
:1006200022460646BAF1080F24BF203A043637683E
:100630000F25954027EA050509FA02F22A433260A0
:10064000CA79D2067FF582AF41F21803C4F20203E1
:100650001A68AEF57E7642F001021A601A6802F05E
:1006600001020192019A2AF0030256F802B040F604
:100670000002C4F20102904210D040F60042C4F2DF
:10068000010290423FF422AF41F20002C4F20102A3
:10069000009F904208BF022719E700BF002716E716
:1006A00002B0BDE8F08F000040F20410C2F200007A
:1006B0000068704740F2000040F20411C2F20000EE
:1006C000C2F2000100780A68104408607047000018
:1006D00080B542F20000C4F20200016841F010014E
:1006E0000160032000F07AF80F2000F005F800F018
:1006F00027F8002080BD000070B540F20006C2F26D
:10070000000640F208013278C2F200014FF47A7319
:100710000968B3FBF2F20446B1FBF2F1084600F0BF
:100720004FFB0F2C4FF0010508D838B94FF0FF30C0
:1007300021460022002500F025F87460284670BD8F
:1007400082B041F21800C4F202000168022241F0B6
:1007500001010160016801F0010101910199416805
:1007600041F080514160406800F080500090009856
:100770000420C4F20100016862F31A61016002B052
:100780007047000010B54EF60C5CCEF2000CDCF8A1
:100790000030C3F3022E8EF00704042C28BF04247B
:1007A000BEF103034FF0FF3E0EFA04F438BF0023FE
:1007B000A14399400EFA03F39A43114300F00F024C
:1007C00000F160430901043A03F5644362440028E0
:1007D00048BF02F10C03197010BD00004EF60C5119
:1007E000CEF200010A684FF6FF031A4060F30A22B6
:1007F00042F0806040F0FD70086070472DE9F043E2
:1008000081B0002800F0858042F20008C4F202089E
:100810000446D8F800000D4600F0070088420CD2CC
:10082000D8F8000020F007002843C8F80000D8F8E6
:10083000000000F00700A8426BD1206841F20409D3
:100840008107C4F2020917D5410705D5D9F8001070
:1008500041F4E061C9F80010010705D5D9F800108E
:1008600041F46051C9F80010D9F80010A26821F0D5
:10087000F0011143C9F80010C00741D1D8F80000B9
:1008800000F00700A8420CD9D8F8000020F00700BB
:100890002843C8F80000D8F8000000F00700A8427C
:1008A00037D12068410707D5D9F80010E26821F454
:1008B000E0611143C9F80010000708D5D9F800001D
:1008C000216920F4605040EAC100C9F80000D9F85D
:1008D000002002F00C00082841F20020C0F27A004B
:1008E00050D141F25623C2F38341C0F60003595C54
:1008F000D2033BD440F60010C0F23D00484341E033
:10090000606802280AD001282AD159F8041C8903FA
:1009100008D4012001B0BDE8F08300BF59F8041CE1
:100920008901F6D5D9F8001021F003010843C9F870
:100930000000FFF7B9FE064641F28837D9F80000FB
:10094000616800F00C00B0EB810F97D0FFF7ACFEB0
:10095000801BB842F2D9032001B0BDE8F08300BF8C
:1009600059F8041C8907D4D5DCE700BFD9F800206A
:1009700041F25423C2F34042C0F600039A5C48435C
:10098000B0FBF2F0D9F8001041F23C22C1F30311A0
:10099000C0F60002515C40F2080220FA01F140F278
:1009A0000400C2F200000068C2F200021160FFF70A
:1009B000A3FE002001B0BDE8F083000040F2080073
:1009C00041F20401C2F20000C4F2020100680968A9
:1009D00041F24C22C1F30221C0F60002515CC84032
:1009E0007047000040F2080041F20401C2F200002A
:1009F000C4F202010068096841F24C22C1F3C2212D
:100A0000C0F60002515CC840704700002DE9F0417B
:100A100082B0002868D00446007841F20006C00782
:100A2000C4F2020625D0706800F00C0004281BD028
:100A3000706800F00C00082802D17068C00313D45D
:100A40006068002800F06881B0F5A02F00F07C817C
:100A5000B0F5803F00F07C81306820F48030306059
:100A6000306820F4802076E13068800301D560682A
:100A7000D0B32078800718D5706810F00C0F07D01D
:100A8000706800F00C0008286ED17068C0036BD449
:100A90003068800702D52069012825D13068616956
:100AA00020F0F80040EAC1003060207800071FD431
:100AB0002078400732D4E56995B1706800F00C00E9
:100AC000082840F08F80012D0ED07068216A00F454
:100AD00080328A4208D1616A00F47010884203D1E2
:100AE000002002B0BDE8F081012002B0BDE8F08135
:100AF000A069002862D00020C4F242200121C0F881
:100B00008014FFF7D1FD0546706A800700F18C80E4
:100B1000FFF7CAFD401B0228F6D92AE1F06910F060
:100B2000805808D1F06940F08050F061F06900F021
:100B300080500090009847F20007C4F20007386820
:100B4000C00529D4386840F480703860FFF7ACFDE8
:100B5000054600BF3868C0051ED4FFF7A5FD401B41
:100B60006428F7D905E100BF2069002840F20000A1
:100B7000C4F2422000F0828001210160FFF794FD61
:100B8000054600BF306880073FF588AFFFF78CFD52
:100B9000401B0228F6D9ECE0E068002800F08080D5
:100BA000052800F09780012800F09880306A20F036
:100BB00001003062306A20F0040092E00020C4F2AC
:100BC00042200021C0F88014FFF76EFD054600BFEB
:100BD000706A80077FF56CAFFFF766FD401B022847
:100BE000F6D9C6E00027C4F2422700203866FFF796
:100BF0005BFD022D05460BD13068800140F1BE80BF
:100C0000FFF752FD401B02284FF00300F4D968E7BC
:100C1000306880017FF564AFFFF746FD401B022876
:100C20004FF00300F4D95CE740F20800C2F2000084
:100C3000006844F6D351C1F26201A0FB0101480AE9
:100C4000019000BF00BF0198411E002801913FF4B0
:100C50002FAF00BF0198411E002801913FF428AF3B
:100C600000BF0198411E002801913FF421AF00BF51
:100C70000198411E00280191E4D119E7002101608B
:100C8000FFF712FD054600BF306880077FF50DAF06
:100C9000FFF70AFD401B02284FF00300F4D920E7BC
:100CA000306A20F001003062306A20F004003062C7
:100CB000FFF7FAFC054641F2883700BF306A80072B
:100CC00020D5FFF7F1FC401BB8424FF00300F5D9E7
:100CD00007E700BF306A40F004003062306A40F03D
:100CE00001003062FFF7E0FC054641F2883700BFA3
:100CF000306A800706D4FFF7D7FC401BB842F7D90B
:100D000037E000BFB8F1000F7FF4D5AEF06920F0F6
:100D10008050F061CFE600BF306820F48030306052
:100D2000306820F480203060FFF7BEFC054600BF2D
:100D3000306880037FF59DAEFFF7B6FC401B64284A
:100D40004FF00300F4D9CCE6306840F480203060E6
:100D5000306840F480303060FFF7A6FC054600BFE5
:100D6000306880033FF585AEFFF79EFC401B64288A
:100D7000F6D9032002B0BDE8F08100BF206AB0F5CB
:100D8000803F05D17168A26821F400311143716080
:100D90007168626A21F47411114308437060012084
:100DA0003866FFF781FC0446306880013FF598AE55
:100DB000FFF77AFC001B02284FF00300F4D990E6FD
:100DC000411E0020B0EB116F1CBF012070474EF296
:100DD0001002CEF2000251604EF62351CEF2000115
:100DE000F0230B700721906011607047002804BF4A
:100DF0000120704710B5044690F8410028B9002042
:100E000084F84000204600F063F8242084F8410074
:100E10002068D4E90212C36823F40053C360036955
:100E200023F440531A430261D4E904231143C268F6
:100E3000194341F20C639A431143C1604169A269AD
:100E400021F44071114343F60002C4F201029042C2
:100E5000416103D0FFF7B2FD02E000BFFFF7C2FD22
:100E60006268192148439100B0FBF1F048F21F512C
:100E7000C5F2EB11A0FB01235A094FF69C73C0F693
:100E8000FF7302FB0300322303EB0010A0FB010100
:100E9000F02303EA5113206803EB0212C1F343115C
:100EA00011448160016921F490410161416921F09F
:100EB0002A014161C16841F40051C1600020202134
:100EC000606484F8411084F84210606310BD000033
:100ED00070B586B040F60004C4F20104006804F561
:100EE000405100268842049602D006B070BD00BF73
:100EF00041F21800C4F20200016802AD41F48041E1
:100F00000160016801F4804101910199016841F09B
:100F1000040101600068294600F004000190019876
:100F20004FF40070029002200390032005902046A9
:100F3000FFF7ACFA4FF48060CDE90206204629465F
:100F40000496FFF7A3FA06B070BD00002DE9F0414A
:100F5000044690F8410020281CBF0220BDE8F08123
:100F60000D4600294FF0010000F0AA801646002A25
:100F700008BFBDE8F081002060642120984684F815
:100F80004100FFF791FBA684E684A1680646B1F50F
:100F9000805F02D12069002862D02F460025E08CB6
:100FA000002861D018F1010018D0B8F1000F37D136
:100FB000216808E017F8010B4860E08C0138E084F4
:100FC000E08C002851D00868000673D5002FF1D1BD
:100FD00035F8020B00276FF35F20EDE7216802E090
:100FE0000868000609D40868000606D408680006E8
:100FF0005CBF08685FEA0060F2D51FB117F8010B0B
:1010000005E000BF35F8020B00276FF35F20486052
:10101000E08C0138E084E08C0028E4D125E000BFBA
:10102000216800BF0868000608D4FFF73DFB801B5D
:10103000404541D82168C868F4E700BF17B117F8E8
:10104000010B04E035F8020B00276FF35F204860C6
:10105000E08C0138E084E08C0028E3D105E000BF9B
:101060000027E08C00289DD12168086840061FD425
:10107000B8F1000F1ED018F101000FD1086840062A
:1010800016D40868400613D40868400610D40868CF
:1010900040064FF00000F1D50FE000BFFFF704FB62
:1010A000801B404508D82068C16800684006F5D517
:1010B000002002E0FFF7F8FA0320202184F8411015
:1010C000BDE8F081FEE70000FEE70000FEE700005B
:1010D0007047000070470000FFF7ECBA704700004F
:1010E000FEE7000090B0FFF7F3FA00240120CDE9FD
:1010F0000B44CDE9094406900A904FF4E0104FF4F8
:10110000803102250F9006A8CDE90714CDE90D51D5
:10111000FFF77CFC20B1EFF3108072B6FEE700BF52
:101120000F20CDE901054FF48060CDE9040401A84A
:1011300002210394FFF762FB20B1EFF3108072B637
:10114000FEE700BF41F21800C4F20200016840F25D
:10115000780841F020010160016846F2004501F085
:101160002001069106990168C2F2000841F00401CD
:1011700001600068C4F2000500F0040006900698C3
:10118000404640F81C5F092100244FF400324FF420
:101190004013C0E90114C0E90342C0E90534848367
:1011A000FFF7A8F820B1EFF3108072B6FEE700BF9A
:1011B00040F2BC0005F55441C2F200000C234FF48C
:1011C000E13280E81600C0E90344C0E90534C46197
:1011D000FFF70CFE20B1EFF3108072B6FEE700BF00
:1011E0000A2140F20C0940F2BC040020C8F8141097
:1011F000232108F11C0508F10406C2F20009C2F21D
:1012000000040CA7C8E90300C8F8041088F8180007
:10121000284631464A464346FFF718F820463946E5
:1012200006224FF0FF33FFF791FE4FF4FA70FFF7FD
:1012300019F9EDE773656E740D0A000000000000F7
:101240000000000001020304060708090000000076
:1012500001020304010202030405060708090A0B40
:101260000C0D0E0F10100000881200080000002066
:101270001800000028010008A01200081800002033
:10128000F00600004401000801000000100000000A
:1012900000127A007468616E687472610D0A000051
:04000005080000ED02
:00000001FF
