:020000040800F2
:10000000980600208901000891010008930100086A
:100010009501000897010008990100080000000000
:100020000000000000000000000000009B0100082C
:100030009D010008000000009F010008A1010008C8
:10004000A3010008A3010008A3010008A301000800
:10005000A3010008A3010008A3010008A3010008F0
:10006000A3010008A3010008A301000889020008F9
:10007000B9020008E9020008190300084903000852
:1000800079030008A9030008A3010008A3010008E0
:10009000A3010008A3010008A3010008A3010008B0
:1000A000A3010008A3010008A3010008A3010008A0
:1000B000A3010008A3010008A3010008A301000890
:1000C000A3010008A3010008A3010008A301000880
:1000D000D1030008A3010008A3010008A301000840
:1000E000A3010008A3010008A301000800F002F822
:1000F00000F03AF80AA090E8000C82448344AAF188
:100100000107DA4501D100F02FF8AFF2090EBAE885
:100110000F0013F0010F18BFFB1A43F0010318473B
:10012000140B0000340B0000103A24BF78C878C1CB
:10013000FAD8520724BF30C830C144BF04680C60ED
:10014000704700000023002400250026103A28BF35
:1001500078C1FBD8520728BF30C148BF0B60704739
:100160001FB51FBD10B510BD00F050F81146FFF7C8
:10017000F7FF00F08BFA00F06EF803B4FFF7F2FF20
:1001800003BC00F075F800000948804709480047A3
:10019000FEE7FEE7FEE7FEE7FEE7FEE7FEE7FEE737
:1001A000FEE7FEE704480549054A064B7047000094
:1001B00071050008ED000008980000209806002056
:1001C000980200209802002010B5431C02E010F8AD
:1001D000011B71B18107FAD14FF0013202C88C1AAC
:1001E0008C4314EAC211F9D0C01A0A0603D0C01E0B
:1001F00010BDC01A10BD0A0401D0801E10BD090236
:10020000FCD0401E10BD704770477047754600F027
:100210002BF8AE4605006946534620F00700854698
:1002200018B020B5FFF7BEFFBDE820404FF0000634
:100230004FF000074FF000084FF0000BAC46ACE861
:10024000C009ACE8C009ACE8C009ACE8C00921F0BD
:1002500007018D46704710B50446AFF30080204675
:10026000BDE81040FFF789BF00487047100000202C
:1002700001491820ABBEFEE72600020070470000CF
:1002800081B0009001B0704780B582B00020C4F208
:100290000200006800F00F00019001980421C4F2F0
:1002A000020108600198FFF7EBFF02B080BD00007B
:1002B00081B0009001B0704780B582B00020C4F2D8
:1002C00002000068C0F303100190019800010421AE
:1002D000C4F2020108600198FFF7EAFF02B080BD96
:1002E00081B0009001B0704780B582B00020C4F2A8
:1002F00002000068C0F3032001900198000204216D
:10030000C4F2020108600198FFF7EAFF02B080BD65
:1003100081B0009001B0704780B582B00020C4F277
:1003200002000068C0F3033001900198000304212B
:10033000C4F2020108600198FFF7EAFF02B080BD35
:1003400081B0009001B0704780B582B00020C4F247
:1003500002000068C0F303400190019800040421EA
:10036000C4F2020108600198FFF7EAFF02B080BD05
:1003700081B0009001B0704780B582B00020C4F217
:1003800002000068C0F303500190019800050421A9
:10039000C4F2020108600198FFF7EAFF02B080BDD5
:1003A00081B0009001B0704780B582B00020C4F2E7
:1003B00002000068C0F30360019001980006042168
:1003C000C4F2020108600198FFF7EAFF02B080BDA5
:1003D00043F60800C4F200000088C00788B3FFE7B6
:1003E00043F60C00C4F20000018840F29000C2F213
:1003F00000000170017840F2780CC2F2000CDCF8C9
:1004000000305A1CCCF8002040F27C02C2F20002FC
:10041000D15400780A2813D1FFE740F27801C2F2E4
:1004200000010B6840F27C02C2F200020020D054AE
:1004300040F27403C2F2000301221A700860FFE761
:10044000FFE7704780B500F001F880BD84B0002060
:100450000390029041F20001C4F20201086840F4E6
:1004600080300860FFE741F20000C4F2020000683B
:1004700000F400300290039801300390FFE70299E6
:100480000020019039B9FFE70398B0F5A06018BFCC
:1004900001200190FFE70198C0070028E3D1FFE7A2
:1004A00041F20000C4F2020000688003002803D576
:1004B000FFE70120029002E000200290FFE702988F
:1004C000012851D1FFE742F20001C4F2020108689D
:1004D00040F010000860086820F007000860086815
:1004E00040F00200086041F20401C4F202010091F0
:1004F0000868086008680860086840F48060086060
:10050000086820F47C100860086840F4E81008606F
:1005100041F20001C4F20201086840F080700860F6
:10052000FFE741F20000C4F20200006880010028E9
:1005300001D4FFE7F5E741F20401C4F202010868C3
:1005400020F003000860086840F002000860FFE740
:1005500041F20400C4F20200006800F00C00082818
:1005600001D0FFE7F4E700E0FFE704B070470000C8
:1005700080B541F20002C4F20202106840F00100AE
:10058000106041F20401C4F2020108680023CFF6B2
:10059000FF031840086010684FF6FF73CFF6F6634C
:1005A00018401060106820F480201060086820F463
:1005B000FE00086041F20801C4F202014FF41F007E
:1005C0000860FFF73FFF4EF60851CEF200014FF0F2
:1005D0000060086080BD000081B08DF803009DF9C7
:1005E000030000280ED4FFE79DF9031001F01F025D
:1005F000012090404A094EF20011CEF2000141F86C
:100600002200FFE701B0704781B0ADF80200FFE7BC
:10061000BDF80200A8B1FFE72421C4F200010020C8
:100620000880FFE72420C4F200000088B0F57A7F3C
:1006300001DAFFE7F6E7BDF802000138ADF8020085
:10064000E6E701B07047000041F21C01C4F202016C
:10065000086840F0010008602821C4F200014F2022
:1006600008802C21C4F200014FF4FA6008804FF09A
:100670008041088840F0010008801421C4F2000184
:10068000088840F0010008807047000080B582B003
:1006900000200190FFF7D8FF01204FF4165100F021
:1006A00037F900F023F800F0A1F8FFE740F200006E
:1006B000C2F2000000F008F940F27400C2F200003B
:1006C000007868B1FFE740F27C00C2F2000000F061
:1006D00099FA40F27401C2F2000100200870FFE7AD
:1006E0004FF47A70FFF790FFE0E7000041F2180145
:1006F000C4F20201086840F480500860086840F0C5
:1007000004000860086840F001000860086840F0D4
:100710000100086040F60001C4F20101086820F4FD
:1007200070000860086840F430000860086820F035
:1007300070400860086840F030400860086820F0A9
:1007400070600860086840F080600860086840F4E5
:10075000E020086043F20001C4F20101088840F083
:1007600018000880088840F001000880088840F0E0
:1007700002000880088820F480600880088840F41F
:1007800000700880088840F480700880088820F491
:1007900000600880088840F004000880088840F065
:1007A000400008807047000081B08DF80300FFE72B
:1007B00043F20800C4F2010000888007002801D439
:1007C000FFE7F5E79DF8030043F20C01C4F20101D5
:1007D0000880FFE743F20800C4F201000088000629
:1007E000002801D5FFE7F5E701B0704780B541F279
:1007F0001C01C4F20201086840F48040086041F224
:100800001801C4F20201086840F008000860086896
:1008100040F00100086040F60441C4F2010108689C
:1008200020F470000860086840F4800008600868E0
:1008300020F070400860086840F080400860086858
:1008400020F070600860086840F030600860086858
:1008500020F470200860086840F43020086043F6F7
:100860000001C4F20001088820F4006008800888B4
:1008700040F001000880088840F0020008800888E5
:1008800020F080000880088820F4806008800888B4
:1008900040F400700880088820F480700880088880
:1008A00020F00400088043F60402C4F2000210881D
:1008B00040F040001080088840F04000088024206C
:1008C000FFF78AFE80BD000080B584B00390002051
:1008D0008DF80B008DF80B00FFE79DF80B000190E1
:1008E0000398FFF771FC0146019888420DD2FFE79B
:1008F00003989DF80B10405CFFF756FFFFE79DF84B
:100900000B0001308DF80B00E7E704B080BD00005C
:1009100085B08DF8130003919DF81300012868D16C
:10092000FFE741F21801C4F20201086840F4804078
:100930000860086840F001000860086840F00400A2
:10094000086040F60401C4F201010291086820F039
:10095000F0000860086840F080000860086840F017
:1009600030000860086820F470600860086840F48F
:100970000060086043F60C01C4F201010020088009
:10098000088840F400500880088800F4604008801F
:100990000398B0F5165F08D1FFE743F60801C4F2EB
:1009A000010141F64C5008800DE00398B0F5E13F9D
:1009B00008D1FFE743F60801C4F2010140F27120BB
:1009C0000880FFE7FFE743F60C01C4F20101088845
:1009D00040F008000880088840F00400088040F2D9
:1009E0007001C2F2000143F60000C4F20100086089
:1009F000EBE09DF81300022874D1FFE741F21C01DF
:100A0000C4F20201086840F40030086041F21801A5
:100A1000C4F20201086840F001000860086840F074
:100A20000400086040F60001C4F201010191086869
:100A300020F470600860086840F40060086008688E
:100A400040F440700860086820F47040086008684E
:100A500040F40040086040F60C01C4F2010108684F
:100A600040F00800086044F20C41C4F2000100208C
:100A70000880088840F400500880088800F460402E
:100A800008800398B0F5165F08D1FFE744F20841EB
:100A9000C4F2000140F6A66008800DE00398B0F5AE
:100AA000E13F08D1FFE744F20841C4F200014FF4EE
:100AB0009C700880FFE7FFE744F20C41C4F200019C
:100AC000088840F008000880088840F0040008808A
:100AD00040F27001C2F2000144F20040C4F2000092
:100AE000086071E09DF8130003286CD1FFE741F224
:100AF0001C01C4F20201086840F48020086041F241
:100B00001801C4F20201086840F00100086008689A
:100B100040F00800086040F60441C4F20101009171
:100B2000086820F470600860086840F4006008609D
:100B3000086840F440700860086820F4704008605D
:100B4000086840F40040086044F60C01C4F200015B
:100B500000200880088840F400500880088800F4CD
:100B6000604008800398B0F5165F08D1FFE744F6AF
:100B70000801C4F2000140F6A66008800DE0039869
:100B8000B0F5E13F08D1FFE744F60801C4F20001E7
:100B900040F271200880FFE7FFE744F60C01C4F241
:100BA0000001088840F008000880088840F0040030
:100BB000088040F27001C2F2000144F60000C4F265
:100BC00000000860FFE7FFE7FFE705B0704700009F
:100BD00081B08DF803009DF8030040F27001C2F26D
:100BE000000109688880FFE740F27000C2F200004F
:100BF000006800884006002801D4FFE7F4E701B050
:100C00007047000080B582B0019000200090FFE79F
:100C100001980099405C50B1FFE701980099405C51
:100C2000FFF7D6FFFFE7009801300090F0E702B031
:100C300080BD0000580C00080000002010000000DB
:100C400028010008680C0008100000208806000039
:100C500044010008000000006C657468616E6874EF
:080C600072610D0A00000000A2
:04000005080000ED02
:00000001FF
