:020000040800F2
:100000000807002089010008F5100008ED1000081D
:10001000F11000089102000815110008000000000E
:10002000000000000000000000000000FD100008BB
:100030009502000800000000F910000801110008F6
:10004000A3010008A3010008A3010008A301000800
:10005000A3010008A3010008A3010008A3010008F0
:10006000A3010008A3010008A3010008A3010008E0
:10007000A3010008A3010008A3010008A3010008D0
:10008000A3010008A3010008A3010008A3010008C0
:10009000A3010008A3010008A3010008A3010008B0
:1000A000A301000809110008A3010008A30100082A
:1000B000A3010008A3010008A3010008A301000890
:1000C000A3010008A3010008A3010008A301000880
:1000D000A3010008A3010008A3010008A301000870
:1000E000A3010008A3010008A301000800F002F822
:1000F00000F03AF80AA090E8000C82448344AAF188
:100100000107DA4501D100F02FF8AFF2090EBAE885
:100110000F0013F0010F18BFFB1A43F0010318473B
:10012000C8100000E8100000103A24BF78C878C159
:10013000FAD8520724BF30C830C144BF04680C60ED
:10014000704700000023002400250026103A28BF35
:1001500078C1FBD8520728BF30C148BF0B60704739
:100160001FB51FBD10B510BD00F058F81146FFF7C0
:10017000F7FF00F0D1FF00F076F803B4FFF7F2FFCD
:1001800003BC00F07DF8000009488047094800479B
:10019000FEE7FEE7FEE7FEE7FEE7FEE7FEE7FEE737
:1001A000FEE7FEE704480549054A064B7047000094
:1001B00005110008ED0000080801002008070020D4
:1001C00008030020080300204FF0000200B513468A
:1001D00094469646203922BFA0E80C50A0E80C5067
:1001E000B1F12001BFF4F7AF090728BFA0E80C5018
:1001F00048BF0CC05DF804EB890028BF40F8042B11
:1002000008BF704748BF20F8022B11F0804F18BF7D
:1002100000F8012B7047704770477047754600F033
:100220002BF8AE4605006946534620F00700854688
:1002300018B020B5FFF7B6FFBDE820404FF000062C
:100240004FF000074FF000084FF0000BAC46ACE851
:10025000C009ACE8C009ACE8C009ACE8C00921F0AD
:1002600007018D46704710B50446AFF30080204665
:10027000BDE81040FFF781BF004870471000002024
:1002800001491820ABBEFEE72600020070470000BF
:10029000FEE70000704700002DE9F04F82B00E68C5
:1002A000002E00F0038141F20042C4F20102042357
:1002B00040F2004E904208BF03234FF6FF7CC4F289
:1002C000010E009300240123C1F2100C4FF0000A2C
:1002D0004FF0000949E000BF012704F00C030F2292
:1002E0009A402BEA020207FA03F34FEA9A051A43EF
:1002F00046F82520D1F804B040F20C455FEACB2245
:10030000DEF8082054BF22EA080242EA0802C4F2DA
:100310000105CEF808202A685FEA8B2354BF22EA41
:10032000080242EA08022A605FEA8B33DEF8042002
:1003300054BF22EA080242EA08025FEACB33CEF851
:100340000420DEF800204FF0010354BF22EA080227
:1003500042EA0802CEF800200E680AF1010A36FAD5
:100360000AF204F1040400F0A18003FA0AF816EA84
:10037000080FF1D04E68664512DC122E56D8DFE821
:1003800006F0350B45495555555555555555555557
:100390005555554D510000BFD1F80C9046E000BFB7
:1003A0004FF6FF72C1F2210296420FDC0022C1F229
:1003B000110296421AD00022C1F21202964215D0C2
:1003C0000022C1F22102964210D02FE00022C1F299
:1003D000220296420AD00022C1F23102964205D092
:1003E0000022C1F23202964220D100BF8A684AB18F
:1003F000012A14BFC0F81480C0F810804FF008091B
:1004000014E000BF4FF0040910E000BFCA6802F119
:1004100008090BE04FF0000908E000BFCA6802F1CC
:10042000040903E0CA6802F10C0900BF224606462F
:10043000BAF1080F24BF203A043637680F259540DB
:1004400027EA050509FA02F22A433260CA79D20680
:100450007FF582AF41F21803C4F202031A68AEF5C9
:100460007E7642F001021A601A6802F001020192DF
:10047000019A2AF0030256F802B040F60002C4F2D4
:100480000102904210D040F60042C4F201029042B4
:100490003FF422AF41F20002C4F20102009F9042F9
:1004A00008BF022719E700BF002716E702B0BDE822
:1004B000F08F000040F20010C2F2000000687047A8
:1004C00040F2000040F20011C2F20000C2F200014E
:1004D00000780A68104408607047000080B542F256
:1004E0000000C4F20200016841F010010160032025
:1004F00000F0C2F80F2000F005F800F05BF80020D3
:1005000080BD0000B0B586B041F21801C4F202010E
:100510000A68044642F400620A60096801A801F40E
:10052000006101910199694600F096F900F0CAF95D
:100530004DF68361C4F21B31A0FB01014FF0FF3087
:1005400000EB914140F2700042F60042C2F200001E
:10055000C4F2010240F2E7330025C0E90021C0E9FE
:1005600002530561856100F09FFB054610B12846E6
:1005700006B0B0BD40F27000C2F2000000F014FC02
:1005800005460028F3D1192000F036F80F2C0DD8BD
:10059000192021460022002500F042F840F2040014
:1005A000C2F200000460284606B0B0BD012528460E
:1005B00006B0B0BD82B041F21800C4F2020001687A
:1005C000022241F001010160016801F00101019185
:1005D0000199416841F080514160406800F08050CD
:1005E000009000980420C4F20100016862F31A61CF
:1005F000016002B070470000002848BF7047C1B2D8
:1006000000F01F00012202FA00F04EF20012CEF2BA
:10061000000242EAD10121F00301086070470000A6
:1006200010B54EF60C5CCEF2000CDCF80030C3F3D3
:10063000022E8EF00704042C28BF0424BEF103030D
:100640004FF0FF3E0EFA04F438BF0023A143994057
:100650000EFA03F39A43114300F00F0200F16043D6
:100660000901043A03F564436244002848BF02F1DB
:100670000C03197010BD00004EF60C51CEF20001B3
:100680000A684FF6FF031A4060F30A2242F08060C6
:1006900040F0FD70086070472DE9F04381B00028FC
:1006A00000F0858042F20008C4F202080446D8F83F
:1006B00000000D4600F0070088420CD2D8F8000078
:1006C00020F007002843C8F80000D8F8000000F028
:1006D0000700A8426BD1206841F204098107C4F2E7
:1006E000020917D5410705D5D9F8001041F4E0619A
:1006F000C9F80010010705D5D9F8001041F4605180
:10070000C9F80010D9F80010A26821F0F0011143D7
:10071000C9F80010C00741D1D8F8000000F0070068
:10072000A8420CD9D8F8000020F007002843C8F8E8
:100730000000D8F8000000F00700A84237D1206878
:10074000410707D5D9F80010E26821F4E0611143B0
:10075000C9F80010000708D5D9F80000216920F475
:10076000605040EAC100C9F80000D9F8002002F04A
:100770000C00082841F20020C0F27A0050D141F26A
:10078000D813C2F38341C0F60003595CD2033BD4B3
:1007900040F60010C0F23D00484341E06068022886
:1007A0000AD001282AD159F8041C890308D4012051
:1007B00001B0BDE8F08300BF59F8041C8901F6D5EB
:1007C000D9F8001021F003010843C9F80000FFF731
:1007D00071FE064641F28837D9F80000616800F0E2
:1007E0000C00B0EB810F97D0FFF764FE801BB8427E
:1007F000F2D9032001B0BDE8F08300BF59F8041C12
:100800008907D4D5DCE700BFD9F8002041F2D61320
:10081000C2F34042C0F600039A5C4843B0FBF2F0DA
:10082000D9F8001041F2BE12C1F30311C0F6000264
:10083000515C40F2080220FA01F140F20400C2F2D9
:1008400000000068C2F200021160FFF75BFE0020AA
:1008500001B0BDE8F08300000F22026041F2040203
:10086000C4F20202136803F003034360136803F049
:10087000F0038360136803F4E063C36012684FF40D
:10088000E06303EAD202026142F20000C4F2020015
:10089000006800F0070008607047000040F20800A0
:1008A00041F20401C2F20000C4F2020100680968CA
:1008B00041F2CE12C1F30221C0F60002515CC840E1
:1008C0007047000040F2080041F20401C2F200004B
:1008D000C4F202010068096841F2CE12C1F3C221DC
:1008E000C0F60002515CC840704700002DE9F0419D
:1008F00082B0002868D00446007841F20006C007A4
:10090000C4F2020625D0706800F00C0004281BD049
:10091000706800F00C00082802D17068C00313D47E
:100920006068002800F06881B0F5A02F00F07C819D
:10093000B0F5803F00F07C81306820F4803030607A
:10094000306820F4802076E13068800301D560684B
:10095000D0B32078800718D5706810F00C0F07D03E
:10096000706800F00C0008286ED17068C0036BD46A
:100970003068800702D52069012825D13068616977
:1009800020F0F80040EAC1003060207800071FD452
:100990002078400732D4E56995B1706800F00C000A
:1009A000082840F08F80012D0ED07068216A00F475
:1009B00080328A4208D1616A00F47010884203D103
:1009C000002002B0BDE8F081012002B0BDE8F08156
:1009D000A069002862D00020C4F242200121C0F8A2
:1009E0008014FFF767FD0546706A800700F18C8070
:1009F000FFF760FD401B0228F6D92AE1F06910F0EC
:100A0000805808D1F06940F08050F061F06900F042
:100A100080500090009847F20007C4F20007386841
:100A2000C00529D4386840F480703860FFF742FD73
:100A3000054600BF3868C0051ED4FFF73BFD401BCC
:100A40006428F7D905E100BF2069002840F20000C2
:100A5000C4F2422000F0828001210160FFF72AFDEC
:100A6000054600BF306880073FF588AFFFF722FDDD
:100A7000401B0228F6D9ECE0E068002800F08080F6
:100A8000052800F09780012800F09880306A20F057
:100A900001003062306A20F0040092E00020C4F2CD
:100AA00042200021C0F88014FFF704FD054600BF76
:100AB000706A80077FF56CAFFFF7FCFC401B0228D3
:100AC000F6D9C6E00027C4F2422700203866FFF7B7
:100AD000F1FC022D05460BD13068800140F1BE804B
:100AE000FFF7E8FC401B02284FF00300F4D968E749
:100AF000306880017FF564AFFFF7DCFC401B022803
:100B00004FF00300F4D95CE740F20800C2F20000A5
:100B1000006844F6D351C1F26201A0FB0101480A0A
:100B2000019000BF00BF0198411E002801913FF4D1
:100B30002FAF00BF0198411E002801913FF428AF5C
:100B400000BF0198411E002801913FF421AF00BF72
:100B50000198411E00280191E4D119E700210160AC
:100B6000FFF7A8FC054600BF306880077FF50DAF92
:100B7000FFF7A0FC401B02284FF00300F4D920E748
:100B8000306A20F001003062306A20F004003062E8
:100B9000FFF790FC054641F2883700BF306A8007B6
:100BA00020D5FFF787FC401BB8424FF00300F5D972
:100BB00007E700BF306A40F004003062306A40F05E
:100BC00001003062FFF776FC054641F2883700BF2E
:100BD000306A800706D4FFF76DFC401BB842F7D996
:100BE00037E000BFB8F1000F7FF4D5AEF06920F018
:100BF0008050F061CFE600BF306820F48030306074
:100C0000306820F480203060FFF754FC054600BFB8
:100C1000306880037FF59DAEFFF74CFC401B6428D5
:100C20004FF00300F4D9CCE6306840F48020306007
:100C3000306840F480303060FFF73CFC054600BF70
:100C4000306880033FF585AEFFF734FC401B642815
:100C5000F6D9032002B0BDE8F08100BF206AB0F5EC
:100C6000803F05D17168A26821F4003111437160A1
:100C70007168626A21F474111143084370600120A5
:100C80003866FFF717FC0446306880013FF598AEE0
:100C9000FFF710FC001B02284FF00300F4D990E688
:100CA0007047000070470000002804BF0120704713
:100CB00010B5044690F83D0028B9002084F83C00A7
:100CC000204600F06FF8022084F83D00206840F2D2
:100CD000FF730268C4F2000342F6004C9842C4F26B
:100CE000010C15DCB0F1804F1AD040F20041C4F283
:100CF0000001884214D0984218DCB0F1804F1DD01A
:100D000040F20041C4F20001884217D01AE000BF4F
:100D1000604505D040F60001C4F200018842EAD1E6
:100D2000A16822F070020A439842E6DD604505D0D2
:100D300040F60001C4F20001884203D1216922F487
:100D400040720A43A36922F08001D4F804E0E2680B
:100D5000194360450160C262C0F828E002D16169B0
:100D6000CCF83010012141610269D20703D0026939
:100D700022F001020261002084F8461084F83E103F
:100D800084F83F1084F8401084F8411084F8421031
:100D900084F8431084F8441084F8451084F83D101A
:100DA00010BD00007047000090F83D1001291CBFE5
:100DB00001207047022180F83D10006840F2FF7268
:100DC000C168C4F20002904241F00101C16009DC37
:100DD000B0F1804F12D040F20041C4F200018842CD
:100DE0000CD012E042F60041C4F20101884205D065
:100DF00040F60001C4F20001884206D1816801F08A
:100E00000701062904BF00207047016841F0010175
:100E100001600020704700007047000070B5044674
:100E20000068C5680669B10716D515F0020113D030
:100E30006FF002010161012121778069800703D0F1
:100E40002046FFF7E9FF05E0204600F08FF8204636
:100E500000F08EF800202077700719D515F00400F7
:100E600016D020686FF004010161022121778069AA
:100E700010F4407F04D02046FFF7CEFF06E000BF0D
:100E8000204600F073F8204600F072F8002020772A
:100E9000300717D515F0080014D020686FF008014E
:100EA000016104212177C069800703D02046FFF744
:100EB000B3FF05E0204600F059F8204600F058F84E
:100EC00000202077F00619D515F0100016D0206804
:100ED0006FF01001016108212177C06910F4407F93
:100EE00004D02046FFF798FF06E000BF204600F040
:100EF0003DF8204600F03CF800202077F00718BFAE
:100F000015F0010002D1300609D412E020686FF01C
:100F100001010161204600F02DF8300609D515F0D9
:100F2000800006D020686FF0800101612046FFF745
:100F3000B7FE700609D515F0400006D020686FF0A6
:100F400040010161204600F01FF8B00658BF70BD97
:100F500015F0200008D021686FF0200220460A61B9
:100F6000BDE87040FFF79EBE70BD000070470000F6
:100F700070470000006842F60041C4F20101884257
:100F800018BF7047FFF79CBA70470000002804BFE5
:100F90000120704710B5044690F8410028B90020A0
:100FA00084F84000204600F063F8242084F84100D3
:100FB0002068D4E90212C36823F40053C3600369B4
:100FC00023F440531A430261D4E904231143C26855
:100FD000194341F20C639A431143C1604169A2690C
:100FE00021F44071114343F60002C4F20102904221
:100FF000416103D0FFF752FC02E000BFFFF762FC43
:101000006268192148439100B0FBF1F048F21F518A
:10101000C5F2EB11A0FB01235A094FF69C73C0F6F1
:10102000FF7302FB0300322303EB0010A0FB01015E
:10103000F02303EA5113206803EB0212C1F34311BA
:1010400011448160016921F490410161416921F0FD
:101050002A014161C16841F40051C1600020202192
:10106000606484F8411084F84210606310BD000091
:1010700070B586B040F60004C4F20104006804F5BF
:10108000405100268842049602D006B070BD00BFD1
:1010900041F21800C4F20200016802AD41F480413F
:1010A0000160016801F4804101910199016841F0FA
:1010B000040101600068294600F0040001900198D5
:1010C0004FF4007002900220039003200590204608
:1010D000FFF7E2F84FF48060CDE90206204629468A
:1010E0000496FFF7D9F806B070BD0000FEE70000D7
:1010F000FEE70000FEE700007047000070470000B8
:10110000704700007047000040F27000C2F200001B
:10111000FFF784BEFEE7000090B0FFF7DFF906ACF2
:10112000201D2421FFF750F80220069001200A908C
:1011300010200B90002520460D95FFF7D7FB28B116
:10114000EFF3108072B600BFFEE700BF0F20CDE9BD
:10115000010501A80021CDE903550595FFF79CFA8B
:1011600020B1EFF3108072B6FEE700BF41F2180025
:10117000C4F202000168002341F00401016000682C
:1011800043F6000100F004000690069840F2B80013
:10119000C2F20000C4F201010C254FF4E13280E8F4
:1011A0000E00C0E90333C0E90553C361FFF7EEFE4B
:1011B00020B1EFF3108072B6FEE700BFFEE700003B
:1011C00000000000000001020304060708090000F7
:1011D00000000102030401020203040506070809D6
:1011E0000A0B0C0D0E0F1010081200080000002052
:1011F000100000002801000818120008100000204C
:10120000F806000044010008010000001000000082
:0812100000127A00000000004A
:04000005080000ED02
:00000001FF
