:020000040800F2
:10000000680600206D0100087501000877010008EE
:10001000790100087B0100087D0100080000000054
:100020000000000000000000000000007F01000848
:10003000810100080000000083010008850100081C
:100040008701000887010008870100088701000870
:100050008701000887010008870100088701000860
:100060008701000887010008870100088701000850
:100070008701000887010008870100088701000840
:100080008701000887010008870100088701000830
:100090008701000887010008870100088701000820
:1000A0008701000887010008870100088701000810
:1000B0008701000887010008870100088701000800
:1000C00087010008870100088701000887010008F0
:1000D00087010008870100088701000887010008E0
:1000E00087010008870100088701000800F002F876
:1000F00000F02CF80AA090E8000C82448344AAF196
:100100000107DA4501D100F021F8AFF2090EBAE893
:100110000F0013F0010F18BFFB1A43F0010318473B
:10012000F406000004070000002300240025002638
:10013000103A28BF78C1FBD8520728BF30C148BF4A
:100140000B6070471FB51FBD10B510BD00F031F832
:100150001146FFF7F7FF00F0ADF900F04FF803B4D8
:10016000FFF7F2FF03BC00F057F800000948804792
:1001700009480047FEE7FEE7FEE7FEE7FEE7FEE789
:10018000FEE7FEE7FEE7FEE704480549054A064BA1
:100190007047000055030008ED00000868000020CB
:1001A000680600206802002068020020704770473F
:1001B0007047754600F02CF8AE4605006946534678
:1001C00020F00700854618B020B5FFF7DDFFBDE839
:1001D00020404FF000064FF000074FF000084FF0AE
:1001E000000BAC46ACE8C009ACE8C009ACE8C009FB
:1001F000ACE8C00921F007018D46704710B50446F0
:10020000AFF300802046BDE81040FFF7A8BF000014
:10021000004870470000002001491820ABBEFEE7EF
:10022000260002007047000080B500F001F880BD94
:1002300084B000200390029041F20001C4F2020158
:10024000086840F480300860FFE741F20000C4F223
:100250000200006800F4003002900398013003901F
:10026000FFE702990020019039B9FFE70398B0F544
:10027000A06018BF01200190FFE70198C007002887
:10028000E3D1FFE741F20000C4F2020000688003FE
:10029000002803D5FFE70120029002E00020029031
:1002A000FFE70298012851D1FFE742F20001C4F2B2
:1002B0000201086840F010000860086820F007009C
:1002C0000860086840F00200086041F20401C4F2CE
:1002D000020100910868086008680860086840F436
:1002E00080600860086820F47C100860086840F4AA
:1002F000E810086041F20001C4F20201086840F011
:1003000080700860FFE741F20000C4F2020000685C
:100310008001002801D4FFE7F5E741F20401C4F2AF
:100320000201086820F003000860086840F002003D
:100330000860FFE741F20400C4F20200006800F028
:100340000C00082801D0FFE7F4E700E0FFE704B065
:100350007047000080B541F20002C4F2020210684A
:1003600040F00100106041F20401C4F2020108688B
:100370000023CFF6FF031840086010684FF6FF73A4
:10038000CFF6F66318401060106820F480201060EB
:10039000086820F4FE00086041F20801C4F202017E
:1003A0004FF41F000860FFF73FFF4EF60851CEF2F2
:1003B00000014FF00060086080BD000081B0ADF822
:1003C0000200FFE7BDF80200A8B1FFE72421C4F254
:1003D000000100200880FFE72420C4F2000000880C
:1003E000B0F57A7F01DAFFE7F6E7BDF802000138E1
:1003F000ADF80200E6E701B07047000041F21C01D1
:10040000C4F20201086840F0010008602821C4F22B
:1004100000014F2008802C21C4F200014FF4FA6043
:1004200008804FF08041088840F0010008801421C6
:10043000C4F20001088840F0010008807047000005
:1004400041F20401C4F20201086840F0C060086093
:1004500041F21801C4F20201086840F0040008608B
:1004600040F60002C4F20102106820F00F00106094
:10047000106840F00300106040F60C02C4F2010264
:10048000106840F001001060086840F0100008603B
:1004900041F20401C4F20101086840F44010086010
:1004A00041F20C01C4F20101086840F400500860F8
:1004B0007047000080B582B000200190FFF79EFFDA
:1004C00001204FF4E13100F00DF8FFF7B9FFFFE72D
:1004D00040F60600C0F6000000F07EF96420FFF749
:1004E0006DFFF5E785B08DF8130003919DF81300BB
:1004F000012868D1FFE741F21801C4F2020108683F
:1005000040F480400860086840F001000860086816
:1005100040F00400086040F60401C4F201010291B9
:10052000086820F0F0000860086840F0800008606B
:10053000086840F030000860086820F470600860C7
:10054000086840F40060086043F60C01C4F2010141
:1005500000200880088840F400500880088800F4D3
:10056000604008800398B0F5165F08D1FFE743F6B6
:100570000801C4F2010141F64C5008800DE00398D7
:10058000B0F5E13F08D1FFE743F60801C4F20101ED
:1005900040F271200880FFE7FFE743F60C01C4F248
:1005A0000101088840F008000880088840F0040035
:1005B000088040F26001C2F2000143F60000C4F27C
:1005C00001000860EBE09DF81300022874D1FFE7FA
:1005D00041F21C01C4F20201086840F400300860D6
:1005E00041F21801C4F20201086840F001000860FD
:1005F000086840F00400086040F60001C4F2010100
:100600000191086820F470600860086840F4006098
:100610000860086840F440700860086820F4704082
:100620000860086840F40040086040F60C01C4F21D
:100630000101086840F00800086044F20C41C4F26F
:10064000000100200880088840F4005008800888D5
:1006500000F4604008800398B0F5165F08D1FFE70A
:1006600044F20841C4F2000140F6A66008800DE0A3
:100670000398B0F5E13F08D1FFE744F20841C4F226
:1006800000014FF49C700880FFE7FFE744F20C4143
:10069000C4F20001088840F008000880088840F093
:1006A0000400088040F26001C2F2000144F2004000
:1006B000C4F20000086071E09DF8130003286CD1BB
:1006C000FFE741F21C01C4F20201086840F48020F7
:1006D000086041F21801C4F20201086840F001000C
:1006E0000860086840F00800086040F60441C4F261
:1006F00001010091086820F470600860086840F407
:1007000000600860086840F440700860086820F4E1
:1007100070400860086840F40040086044F60C012E
:10072000C4F2000100200880088840F400500880CE
:10073000088800F4604008800398B0F5165F08D17F
:10074000FFE744F60801C4F2000140F6A660088005
:100750000DE00398B0F5E13F08D1FFE744F608014A
:10076000C4F2000140F271200880FFE7FFE744F681
:100770000C01C4F20001088840F0080008800888D5
:1007800040F00400088040F26001C2F2000144F62B
:100790000000C4F200000860FFE7FFE7FFE705B0D4
:1007A0007047000081B08DF803009DF8030040F20F
:1007B0006001C2F2000109688880FFE740F2600032
:1007C000C2F20000006800884006002801D4FFE75C
:1007D000F4E701B07047000080B582B001900020BE
:1007E0000090FFE701980099405C50B1FFE7019845
:1007F0000099405CFFF7D6FFFFE7009801300090BA
:10080000F0E702B080BD6C657468616E68747261F7
:100810000D0A0000240800080000002068060000FF
:0408200028010008A3
:04000005080000ED02
:00000001FF
