:020000040800F2
:10000000680600206D0100087501000877010008EE
:10001000790100087B0100087D0100080000000054
:100020000000000000000000000000007F01000848
:10003000810100080000000083010008850100081C
:100040008701000887010008870100088701000870
:100050008701000887010008870100088701000860
:100060008701000887010008870100088701000850
:100070008701000887010008870100088701000840
:100080008701000887010008870100088701000830
:100090008701000887010008870100088701000820
:1000A0008701000887010008870100088701000810
:1000B000C5040008870100088701000887010008BF
:1000C00087010008870100088701000887010008F0
:1000D00087010008870100088701000887010008E0
:1000E00087010008870100088701000800F002F876
:1000F00000F02CF80AA090E8000C82448344AAF196
:100100000107DA4501D100F021F8AFF2090EBAE893
:100110000F0013F0010F18BFFB1A43F0010318473B
:10012000840400009404000000230024002500261D
:10013000103A28BF78C1FBD8520728BF30C148BF4A
:100140000B6070471FB51FBD10B510BD00F031F832
:100150001146FFF7F7FF00F015FA00F04FF803B46F
:10016000FFF7F2FF03BC00F057F800000948804792
:1001700009480047FEE7FEE7FEE7FEE7FEE7FEE789
:10018000FEE7FEE7FEE7FEE704480549054A064BA1
:100190007047000029040008ED00000868000020F6
:1001A000680600206802002068020020704770473F
:1001B0007047754600F02CF8AE4605006946534678
:1001C00020F00700854618B020B5FFF7DDFFBDE839
:1001D00020404FF000064FF000074FF000084FF0AE
:1001E000000BAC46ACE8C009ACE8C009ACE8C009FB
:1001F000ACE8C00921F007018D46704710B50446F0
:10020000AFF300802046BDE81040FFF7A8BF000014
:10021000004870470000002001491820ABBEFEE7EF
:10022000260002007047000081B0ADF802008DF892
:10023000011041F21801C4F20201086840F0040004
:100240000860086840F40060086040F60401C4F2E9
:100250000101086820F00F000860086840F00B00FA
:10026000086042F62841C4F2010108200880BDF868
:10027000020042F62C41C4F20101088042F600411E
:10028000C4F20101088840F08000088042F6144260
:10029000C4F20102108840F00100108042F61842BA
:1002A000C4F20102108820F0FF001080108840F096
:1002B00060001080108840F00800108042F6344240
:1002C000C4F201026420108042F62042C4F201020E
:1002D000108840F001001080108840F00400108069
:1002E00042F64442C4F20102108840F400401080FB
:1002F000088840F00100088001B0704780B500F028
:1003000001F880BD84B000200390029041F200010A
:10031000C4F20201086840F480300860FFE741F24F
:100320000000C4F20200006800F40030029003985C
:1003300001300390FFE702990020019039B9FFE7EF
:100340000398B0F5A06018BF01200190FFE7019865
:10035000C0070028E3D1FFE741F20000C4F2020029
:1003600000688003002803D5FFE70120029002E027
:1003700000200290FFE70298012851D1FFE742F2E6
:100380000001C4F20201086840F01000086008682B
:1003900020F007000860086840F00200086041F2A1
:1003A0000401C4F20201009108680860086808604E
:1003B000086840F480600860086820F47C100860D9
:1003C000086840F4E810086041F20001C4F202013C
:1003D000086840F080700860FFE741F20000C4F256
:1003E000020000688001002801D4FFE7F5E741F230
:1003F0000401C4F20201086820F0030008600868E4
:1004000040F002000860FFE741F20400C4F202007D
:10041000006800F00C00082801D0FFE7F4E700E0D6
:10042000FFE704B07047000080B541F20002C4F25B
:100430000202106840F00100106041F20401C4F2B1
:10044000020108680023CFF6FF0318400860106817
:100450004FF6FF73CFF6F66318401060106820F473
:1004600080201060086820F4FE00086041F2080156
:10047000C4F202014FF41F000860FFF73FFF4EF681
:100480000851CEF200014FF00060086080BD00000E
:1004900081B08DF803009DF8030042F62C41C4F2B0
:1004A00001010988484348F21F51C5F2EB11A0FB36
:1004B0000110400942F63441C4F20101088001B044
:1004C000704700001020C4F200000088C00778B117
:1004D000FFE71021C4F20001088820F00100088025
:1004E00040F26001C2F20001088801300880FFE795
:1004F0007047000080B541F21C01C4F20201086897
:1005000040F0010008604FF08041088840F0800012
:1005100008802822C4F20002082010802C22C4F295
:1005200000024FF4FA6010801422C4F20002108816
:1005300040F001001080088840F0010008800C2184
:10054000C4F20001088840F0010008801C2000F07F
:1005500001F880BD81B08DF803009DF903000028EB
:100560000ED4FFE79DF9031001F01F020120904017
:100570004A094EF20011CEF2000141F82200FFE7D5
:1005800001B0704780B584B000200390FFF7B2FF40
:100590004FF4FA600121FFF747FE0A20FFF778FFCA
:1005A000FFE7FEE7B4050008000000206806000031
:0405B0002801000816
:04000005080000ED02
:00000001FF
